:020000040800F2
:1000000000280020B5110008290F00082F0F000854
:10001000350F00083B0F0008410F000800000000EA
:10002000000000000000000000000000470F000872
:10003000530F0008000000005F0F00086B0F00085E
:10004000FD110008FD110008FD110008FD11000858
:10005000FD110008FD110008FD110008FD11000848
:10006000FD110008FD110008FD110008FD11000838
:10007000FD110008FD110008FD110008FD11000828
:10008000FD110008FD110008FD110008FD11000818
:10009000FD110008FD110008FD110008FD11000808
:1000A000FD110008FD110008FD110008FD110008F8
:1000B000790F0008FD11000800000000FD11000884
:1000C000FD1100080000000000000000FD11000804
:1000D00000000000FD110008FD11000800000000F4
:1000E000FD110008FD110008FD11000800000000CE
:1000F0000000000000000000000000000000000000
:0C01000000000000000000005FF808F1A3
:10010C0010B5054C237833B9044B13B10448AFF345
:10011C0000800123237010BD40000020000000006F
:10012C004828000808B5034B1BB103490348AFF33B
:10013C00008008BD00000000440000204828000892
:10014C0080B584B000AFF860B9607A60FB68002BB2
:10015C000CBF01230023DBB21A464FF480610F4819
:10016C0001F049FBBB68002B0CBF01230023DBB261
:10017C001A464FF48051094801F03DFB7B68002B77
:10018C000CBF01230023DBB21A464FF48041034815
:10019C0001F031FB00BF1037BD4680BD00080140A7
:1001AC0080B584B000AFF860B9607A60FB68002B52
:1001BC000CBF01230023DBB21A464FF400610F4839
:1001CC0001F019FBBB68002B0CBF01230023DBB231
:1001DC001A464FF40051094801F00DFB7B68002BC7
:1001EC000CBF01230023DBB21A464FF40041034835
:1001FC0001F001FB00BF1037BD4680BD0008014077
:10020C0080B594B000AF78604C4A07F108031146F2
:10021C004622184602F0FCFA7B68002BC0F28A805A
:10022C007B68092B00F386807A681346DB009B1AE7
:10023C0007F150021344483B1B78002B0CBF0123E1
:10024C000023DBB21A4601213D4801F0D4FA7A684A
:10025C001346DB009B1A07F150021344473B1B78F3
:10026C00002B0CBF01230023DBB21A4602213448B9
:10027C0001F0C1FA7A681346DB009B1A07F15002B1
:10028C001344463B1B78002B0CBF01230023DBB22D
:10029C001A4604212A4801F0AEFA7A681346DB00AC
:1002AC009B1A07F150021344453B1B78002B0CBFE3
:1002BC0001230023DBB21A460821214801F09BFAE6
:1002CC007A681346DB009B1A07F150021344443B37
:1002DC001B78002B0CBF01230023DBB21A46102124
:1002EC00174801F088FA7A681346DB009B1A07F16D
:1002FC0050021344433B1B78002B0CBF01230023FB
:10030C00DBB21A4620210E4801F075FA7A681346C2
:10031C00DB009B1A07F150021344423B1B78002B65
:10032C000CBF01230023DBB21A464021044801F024
:10033C0062FA00E000BF5037BD4680BD602800085F
:10034C00000C014080B483B000AF786039607B68EA
:10035C00184A82FB03129210DB17D31A164A136049
:10036C007968144B83FB01239A10CB17D21A1346CE
:10037C009B0013445B00CA1A0F4B5A603B680D4A32
:10038C0082FB03129210DB17D31A0B4A9360396865
:10039C00084B83FB01239A10CB17D21A13469B00F0
:1003AC0013445B00CA1A044BDA6000BF0C37BD461D
:1003BC0080BC7047676666660000002080B582B01E
:1003CC0000AF7860012240212A4801F014FA012282
:1003DC008021284801F00FFA01224FF48071254842
:1003EC0001F009FA01224FF40071224801F003FADE
:1003FC007B68032B38D801A252F823F019040008AB
:10040C002F040008450400085D0400081A4B1B6803
:10041C001846FFF7F5FE00224021164801F0EBF9D3
:10042C0023E0154B5B681846FFF7EAFE002280219B
:10043C00104801F0E0F918E00F4B9B681846FFF7E5
:10044C00DFFE00224FF480710A4801F0D4F90CE071
:10045C00094BDB681846FFF7D3FE00224FF40071FE
:10046C00044801F0C8F900E000BF00BF0837BD46E2
:10047C0080BD00BF000801400000002080B483B0A4
:10048C0000AF00237B6016E00F4A7B681344012207
:10049C001A700E4A7B68134401221A700C4A7B684E
:1004AC00134401221A700B4A7B68134401221A7000
:1004BC007B6801337B607B68022BE5DD00BF00BFEE
:1004CC000C37BD4680BC70476000002064000020E3
:1004DC00680000206C00002090B583B000AF0023B2
:1004EC00FB714AE0FA79FB792849895C284AD15496
:1004FC00FB79284A52F82320FB79274931F813302D
:10050C00FC791946104601F05FF903461A461F4B59
:10051C001A55FB791D4AD25CFB791D49CB5C9A427A
:10052C0005D1FA79FB791949895C1C4AD154FB79BC
:10053C001A4AD35C002B14D1FB79194A32F81330C8
:10054C00632B09D8FB79164A32F81320013291B289
:10055C00134A22F813100DE0FB79124A0121D154F1
:10056C0008E0FB790E4A002122F81310FB790D4AA2
:10057C000021D154FB790133FB71FB79022BB1D9EA
:10058C0000BF00BF0C37BD4690BD00BF640000200B
:10059C0068000020100000201C00002060000020DB
:1005AC00740000207000002080B483B000AF0346BC
:1005BC00FB71FB79022B01D9002307E0FB79064A7A
:1005CC00D35C012B0CBF01230023DBB218460C3784
:1005DC00BD4680BC704700BF7000002080B483B063
:1005EC0000AF0346FB71FB79022B01D9002319E004
:1005FC00FB790F4AD35C002B0AD1FB790D4AD35CF3
:10060C00012B05D1FB790B4A0021D154012309E0C0
:10061C00FB79074AD35C012B03D1FB79054A0121F5
:10062C00D154002318460C37BD4680BC704700BF20
:10063C00600000206C00002080B500AF7E4B1A6873
:10064C007E4B1B68D21A7E4B1B689A4215D07A4B94
:10065C001A687A4B1B689A4207DD774B1A68774BFE
:10066C001B68D31A764A136007E0754B01221A6097
:10067C00714B1B68013B714A1360724B1B78042B46
:10068C0000F2D78001A252F823F000BFAD0600089B
:10069C00C50600082707000883070008E3070008C1
:1006AC004FF47A7000F0B6FC654B1B68664A136019
:1006BC00644B01221A70BDE0012200210020FFF7DB
:1006CC003FFD002200210120FFF76AFD5F4B1B68F4
:1006DC00012B0BD15D4B00221A604FF47A7000F0A5
:1006EC0099FC594B1B68013B574A1360564B1B68CE
:1006FC00002B06DC514B1B68534A1360514B0222F2
:10070C001A70514B1A684D4B1B6813444E4A1268B1
:10071C0011461846FFF716FE8CE00022012100203E
:10072C00FFF70EFD002200210120FFF739FD474B9A
:10073C001B68012B0BD1454B00221A604FF47A70C9
:10074C0000F068FC404B1B68013B3F4A13603E4B7A
:10075C001B68002B06DC3A4B1B683B4A1360394B79
:10076C0003221A70384B1B68374A12681146184618
:10077C00FFF7E8FD5EE0002200210120FFF7E0FC1E
:10078C00012200210020FFF70BFD304B1B68012BD1
:10079C000BD12E4B00221A604FF47A7000F03AFC09
:1007AC00294B1B68013B284A1360274B1B68002B05
:1007BC0006DC224B1B68244A1360224B04221A705D
:1007CC00214B1868204B1A681C4B1B6813441946A4
:1007DC00FFF7B8FD2EE0002200210120FFF7B0FC4E
:1007EC00002201210020FFF7DBFC184B1B68012BBA
:1007FC000BD1164B00221A604FF47A7000F00AFCF1
:10080C00114B1B68013B104A13600F4B1B68002BEC
:10081C0006DC0B4B1B680C4A13600A4B01221A7046
:10082C00094B1B68084A126811461846FFF78AFDE7
:10083C0000E000BF00BF80BD240000202800002085
:10084C002C0000207B00002080000020AC00002049
:10085C0080B500AF2B4B1B68012B16D1294B002206
:10086C001A604FF4FA7000F0F7FB274B1B6819461F
:10087C000220FFF767FD4FF48061244800F0D3FF9E
:10088C004FF40061214800F0CEFF0120FFF7A6FED7
:10089C000346002B0BD01C4B1B6801331A4A136008
:1008AC00194B1B68632B02DD174B01221A600120C8
:1008BC00FFF77AFE0346002B17D0154B1B6801334C
:1008CC00134A1360124B1B68632B0EDD0E4B1B6817
:1008DC0001330D4A13600C4B1B68632B02DD0A4B72
:1008EC0001221A600A4B00221A600220FFF776FEE2
:1008FC000346002B03D0044B1B68064A136000BF51
:10090C0080BD00BFB80000207C0000200008014022
:10091C00300000202400002080B500AF2B4B1B685A
:10092C00012B16D1294B00221A604FF4FA7000F0FB
:10093C0093FB274B1B6819460320FFF703FD4FF46D
:10094C008051244800F06FFF4FF40051214800F013
:10095C006AFF0120FFF742FE0346002B0BD01C4B15
:10096C001B6801331A4A1360194B1B68632B02DD99
:10097C00174B01221A600120FFF716FE0346002BCD
:10098C0017D0154B1B680133134A1360124B1B68AD
:10099C00632B0EDD0E4B1B6801330D4A13600C4BA1
:1009AC001B68632B02DD0A4B01221A600A4B0022E2
:1009BC001A600220FFF712FE0346002B03D0044BF3
:1009CC001B68064A136000BF80BD00BFB800002042
:1009DC007C0000200008014030000020280000208E
:1009EC0080B500AF2B4B1B68012B16D1294B002275
:1009FC001A604FF4FA7000F02FFB274B1B68194656
:100A0C000420FFF79FFC4FF48041244800F00BFFBB
:100A1C004FF40041214800F006FF0120FFF7DEFDF6
:100A2C000346002B0BD01C4B1B6801331A4A136076
:100A3C00194B1B68632B02DD174B01221A60012036
:100A4C00FFF7B2FD0346002B17D0154B1B68013383
:100A5C00134A1360124B1B68632B0EDD0E4B1B6885
:100A6C0001330D4A13600C4B1B68632B02DD0A4BE0
:100A7C0001221A600A4B00221A600220FFF7AEFD19
:100A8C000346002B03D0044B1B68064A136000BFBF
:100A9C0080BD00BFB80000207C0000200008014091
:100AAC00300000202C00002080B400AF044B00224A
:100ABC001A70044B00221A7000BFBD4680BC7047F0
:100ACC007A0000207B00002080B500AF0020FFF7EB
:100ADC0085FD0346002B54D03B4B1B78012B14D1C6
:100AEC00394B02221A70642000F0B6FA0022002161
:100AFC000020FFF725FB002200210020FFF750FB10
:100B0C00324B1B68324A13603BE02F4B1B78022B95
:100B1C0014D12D4B03221A70642000F09DFA002290
:100B2C0000210020FFF70CFB002200210020FFF722
:100B3C0037FB284B1B68264A136022E0224B1B789C
:100B4C00032B14D1204B04221A70642000F084FA79
:100B5C00002200210020FFF7F3FA002200210020E0
:100B6C00FFF71EFB1C4B1B68194A136009E0164B60
:100B7C001B78042B05D1144B01221A70174B002241
:100B8C001A70114B1B78042B1CD801A252F823F0BD
:100B9C00B10B0008B90B0008BF0B0008C50B00080F
:100BAC00CB0B0008084B01221A700BE0FFF744FD39
:100BBC0008E0FFF74DFE05E0FFF7AEFE02E0FFF7A1
:100BCC000FFF00BF00BF80BD7A0000202400002072
:100BDC007C000020280000202C0000207B0000203E
:100BEC0080B500AF00F006FB00F042F800F0C8F84A
:100BFC0000F07AF8194801F05BFAFFF755FFFFF7A0
:100C0C003DFC322000F0E4F94FF4FA7000F0BEF92C
:100C1C00134B1B68012B13D1322000F0D9F9114B67
:100C2C001B681846FFF7CAFB0E4B1B6801330D4AB5
:100C3C0013600C4B1B68032B02DD0A4B00221A605D
:100C4C00094B1B68012BE3D14FF4FA7000F09EF9AD
:100C5C002021064800F0E7FDDAE700BFC0000020C5
:100C6C00A00000205C00002094000020000801403F
:100C7C0080B590B000AF07F1180328220021184668
:100C8C0001F0D4FD3B1D00221A605A609A60DA60B4
:100C9C001A610223BB610123BB621023FB62002398
:100CAC007B6307F11803184600F0D6FD0346002BB2
:100CBC0001D000F0D8F80F237B600023BB60002329
:100CCC00FB6000233B6100237B613B1D0021184628
:100CDC0001F042F80346002B01D000F0C4F800BF2D
:100CEC004037BD4680BD000080B586B000AF07F12F
:100CFC00080300221A605A609A60DA603B460022B0
:100D0C001A605A601D4B4FF080421A601B4B41F623
:100D1C003F725A60194B00229A60184B0922DA6014
:100D2C00164B00221A61154B00229A61134801F0F0
:100D3C006FF90346002B01D000F095F84FF4805367
:100D4C00BB6007F1080319460C4801F0EDFA0346A5
:100D5C00002B01D000F087F800233B6000237B6060
:100D6C003B461946054801F0C5FC0346002B01D053
:100D7C0000F079F800BF1837BD4680BDC0000020D8
:100D8C0080B586B000AF07F1080300221A605A60E4
:100D9C009A60DA60274B9B69264A43F004039361FF
:100DAC00244B9B6903F004037B607B68214B9B699C
:100DBC00204A43F0080393611E4B9B6903F0080320
:100DCC003B603B6800224FF6E0711B4800F013FDBE
:100DDC0000227F21194800F00EFD0E23BB6000237A
:100DEC00FB6000233B6107F108031946124800F031
:100DFC0071FB4FF6E073BB600123FB6000233B618A
:100E0C0002237B6107F1080319460B4800F062FBD3
:100E1C007F23BB600123FB6000233B6102237B61CA
:100E2C0007F108031946054800F054FB00BF1837BA
:100E3C00BD4680BD0010024000080140000C01407E
:100E4C0080B582B000AF78607B681B68B3F1804FCF
:100E5C0003D1FFF741FBFFF737FE00F01FF900BF8E
:100E6C000837BD4680BD80B400AF72B600BFFEE748
:100E7C0080B485B000AF154B9B69144A43F0010355
:100E8C009361124B9B6903F00103BB60BB680F4B72
:100E9C00DB690E4A43F08053D3610C4BDB6903F0E2
:100EAC0080537B607B680A4B5B68FB60FB6823F0BC
:100EBC00E063FB60FB6843F08063FB60044AFB6803
:100ECC00536000BF1437BD4680BC70470010024011
:100EDC000000014080B584B000AF78607B681B686F
:100EEC00B3F1804F13D10C4BDB690B4A43F0010378
:100EFC00D361094BDB6903F00103FB60FB68002243
:100F0C0000211C2000F0AFFA1C2000F0C8FA00BF32
:100F1C001037BD4680BD00BF0010024080B400AF4A
:100F2C00FEE780B400AFFEE780B400AFFEE780B40C
:100F3C0000AFFEE780B400AFFEE780B400AF00BFA7
:100F4C00BD4680BC704780B400AF00BFBD4680BCBE
:100F5C00704780B400AF00BFBD4680BC704780B501
:100F6C0000AF00F08DF900BF80BD000080B500AF70
:100F7C00024801F0E9F800BF80BD00BFC0000020AE
:100F8C0080B400AF00BFBD4680BC704780B483B056
:100F9C0000AF78607B680A4A82FB03129210DB1761
:100FAC00D31A084A1360074B1B68074A1360074B98
:100FBC0000221A6000BF0C37BD4680BC704700BFD2
:100FCC006766666698000020900000209400002060
:100FDC0080B483B000AF78607B680A4A82FB03124E
:100FEC009210DB17D31A084A1360074B1B68074A89
:100FFC001360074B00221A6000BF0C37BD4680BC43
:10100C00704700BF67666666A40000209C00002045
:10101C00A000002080B483B000AF78607B680A4ADF
:10102C0082FB03129210DB17D31A084A1360074B8A
:10103C001B68074A1360074B00221A6000BF0C376D
:10104C00BD4680BC704700BF67666666B000002076
:10105C00A8000020AC00002080B483B000AF786002
:10106C007B680A4A82FB03129210DB17D31A084AD8
:10107C001360074B1B68074A1360074B00221A606A
:10108C0000BF0C37BD4680BC704700BF6766666604
:10109C00BC000020B4000020B800002080B400AFD9
:1010AC00334B1B68002B0FDD314B1B68013B304A67
:1010BC0013602F4B1B68002B06D12E4B01221A609C
:1010CC002D4B1B682A4A13602C4B1B68002B0FDD21
:1010DC002A4B1B68013B294A1360284B1B68002BC9
:1010EC0006D1274B01221A60264B1B68234A13603A
:1010FC00254B1B68002B0FDD234B1B68013B224A41
:10110C001360214B1B68002B06D1204B01221A6067
:10111C001C4B1B681C4A13601D4B1B68002B0FDDFE
:10112C001B4B1B68013B1A4A1360194B1B68002BA5
:10113C0006D1184B01221A60174B1B68144A136016
:10114C00164B1B68002B0FDD144B1B68013B134A1D
:10115C001360124B1B68002B06D1114B01221A6035
:10116C00104B1B680D4A136000BFBD4680BC704716
:10117C0084000020880000208C00002090000020BB
:10118C0094000020980000209C000020A00000206B
:10119C00A8000020AC000020B0000020B40000200B
:1011AC00B8000020BC000020FFF7EAFE0B480C49F9
:1011BC000C4A002302E0D458C4500433C4188C42A7
:1011CC00F9D3094A094C002301E013600432A2420E
:1011DC00FBD301F0F9FAFFF703FD70470000002084
:1011EC0040000020D4280008400000200C01002002
:1011FC00FEE7000080B500AF084B1B68074A43F0C0
:10120C0010031360032000F023F90F2000F008F8FE
:10121C00FFF72EFE0023184680BD00BF00200240C1
:10122C0080B582B000AF7860124B1A68124B1B78F5
:10123C0019464FF47A73B3FBF1F3B2FBF3F3184690
:10124C0000F03BF90346002B01D001230EE07B6834
:10125C000F2B0AD8002279684FF0FF3000F003F909
:10126C00064A7B681360002300E001231846083708
:10127C00BD4680BD340000203C000020380000201A
:10128C0080B400AF054B1B781A46054B1B68134402
:10129C00034A136000BFBD4680BC70473C00002071
:1012AC000801002080B400AF024B1B681846BD46F5
:1012BC0080BC70470801002080B485B000AF786016
:1012CC007B6803F00703FB600C4BDB68BB60BA6800
:1012DC004FF6FF031340BB60FB681A02BB68134355
:1012EC0043F0BF6343F40033BB60044ABB68D36074
:1012FC0000BF1437BD4680BC704700BF00ED00E056
:10130C0080B400AF044BDB681B0A03F007031846DC
:10131C00BD4680BC704700BF00ED00E080B483B0D8
:10132C0000AF0346FB7197F90730002B0BDBFB7901
:10133C0003F01F02064997F907305B09012000FAF8
:10134C0002F241F8232000BF0C37BD4680BC704729
:10135C0000E100E080B483B000AF03463960FB715C
:10136C0097F90730002B0ADB3B68DAB20C4997F986
:10137C0007301201D2B20B4483F800230AE03B6819
:10138C00DAB20849FB7903F00F03043B1201D2B225
:10139C000B441A7600BF0C37BD4680BC704700BFAB
:1013AC0000E100E000ED00E080B489B000AFF8602F
:1013BC00B9607A60FB6803F00703FB61FB69C3F15A
:1013CC000703042B28BF0423BB61FB690433062BE2
:1013DC0002D9FB69033B00E000237B614FF0FF3235
:1013EC00BB6902FA03F3DA43BB681A407B699A4083
:1013FC004FF0FF317B6901FA03F3D9437B680B4053
:10140C00134318462437BD4680BC704780B582B064
:10141C0000AF78607B68013BB3F1807F01D301237F
:10142C000FE00A4A7B68013B53600F214FF0FF30FD
:10143C00FFF790FF054B00229A60044B07221A60BD
:10144C00002318460837BD4680BD00BF10E000E001
:10145C0080B582B000AF78607868FFF72DFF00BFD1
:10146C000837BD4680BD80B586B000AF0346B96075
:10147C007A60FB7300237B61FFF742FF78617A6827
:10148C00B9687869FFF790FF024697F90F3011465B
:10149C001846FFF75FFF00BF1837BD4680BD80B50B
:1014AC0082B000AF0346FB7197F907301846FFF77F
:1014BC0035FF00BF0837BD4680BD80B582B000AF98
:1014CC0078607868FFF7A2FF034618460837BD46D8
:1014DC0080BD000080B48BB000AF78603960002311
:1014EC007B6200233B6248E101227B6A02FA03F330
:1014FC00FB613B681B68FA691340BB61BA69FB6905
:10150C009A4240F037813B685B68A34A93425ED0B5
:10151C00A14A934275D8A14A934258D09F4A93420C
:10152C006FD89F4A934252D09D4A934269D89D4AA4
:10153C0093424CD09B4A934263D89B4A934246D0E9
:10154C00994A93425DD8122B2AD8122B59D801A252
:10155C0052F823F0DB150008B5150008C715000874
:10156C00091600080F1600080F1600080F160008C1
:10157C000F1600080F1600080F1600080F160008AB
:10158C000F1600080F1600080F1600080F1600089B
:10159C000F1600080F160008BD150008D11500081D
:1015AC00824A934213D02CE03B68DB683B6229E013
:1015BC003B68DB6804333B6224E03B68DB68083340
:1015CC003B621FE03B68DB680C333B621AE03B6814
:1015DC009B68002B02D104233B6213E03B689B68A1
:1015EC00012B05D108233B627B68FA691A6109E07B
:1015FC0008233B627B68FA695A6103E000233B6273
:10160C0000E000BFBB69FF2B01D87B6801E07B6861
:10161C0004337B61BB69FF2B02D87B6A9B0002E021
:10162C007B6A083B9B003B617B691A680F213B6915
:10163C0001FA03F3DB431A40396A3B6901FA03F3FD
:10164C001A437B691A603B685B6803F08053002B7C
:10165C0000F09080564B9B69554A43F0010393610F
:10166C00534B9B6903F00103BB60BB68514A7B6A17
:10167C009B08023352F82330FB607B6A03F00303B0
:10168C009B000F2202FA03F3DB43FA681340FB6062
:10169C007B68494A93420DD07B68484A934207D0F5
:1016AC007B68474A934201D1022304E0032302E002
:1016BC00012300E000237A6A02F0030292009340B7
:1016CC00FA681343FB603B497B6A9B080233FA6858
:1016DC0041F823203B685B6803F48013002B06D091
:1016EC00384B9A683749BB6913438B6006E0354B1E
:1016FC009A68BB69DB43334913408B603B685B687A
:10170C0003F40013002B06D02E4BDA682D49BB696D
:10171C001343CB6006E02B4BDA68BB69DB432949EA
:10172C001340CB603B685B6803F40033002B06D09E
:10173C00244B5A682349BB6913434B6006E0214B89
:10174C005A68BB69DB431F4913404B603B685B68BD
:10175C0003F48033002B06D01A4B1A681949BB6965
:10176C0013430B6006E0174B1A68BB69DB43154942
:10177C0013400B607B6A01337B623B681A687B6A9F
:10178C0022FA03F3002B7FF4AFAE00BF00BF2C375F
:10179C00BD4680BC704700BF000032100000311005
:1017AC000000221000002110000012100000111087
:1017BC00001002400000014000080140000C0140F4
:1017CC00001001400004014080B485B000AF786087
:1017DC000B467B807B689A687B881340002B02D079
:1017EC000123FB7301E00023FB73FB7B18461437CA
:1017FC00BD4680BC704780B483B000AF78600B46A8
:10180C007B8013467B707B78002B03D07A887B68B7
:10181C001A6103E07B881A047B681A6100BF0C37DD
:10182C00BD4680BC704780B485B000AF78600B4675
:10183C007B807B68DB68FB607A88FB6813401A044A
:10184C00FB68D9437B880B401A437B681A6100BF45
:10185C001437BD4680BC704780B586B000AF786049
:10186C007B68002B01D101236CE27B681B6803F0C1
:10187C000103002B00F08780924B5B6803F00C0394
:10188C00042B0CD08F4B5B6803F00C03082B12D18C
:10189C008C4B5B6803F48033B3F5803F0BD1894BE1
:1018AC001B6803F40033002B6CD07B685B68002B47
:1018BC0068D1012346E27B685B68B3F5803F06D1B3
:1018CC00804B1B687F4A43F4803313602EE07B68A7
:1018DC005B68002B0CD17B4B1B687A4A23F480335A
:1018EC001360784B1B68774A23F4802313601DE048
:1018FC007B685B68B3F5A02F0CD1724B1B68714AE7
:10190C0043F4802313606F4B1B686E4A43F480339F
:10191C0013600BE06B4B1B686A4A23F48033136033
:10192C00684B1B68674A23F4802313607B685B68F1
:10193C00002B13D0FFF7B6FC386108E0FFF7B2FCC0
:10194C0002463B69D31A642B01D90323FAE15D4BA0
:10195C001B6803F40033002BF0D014E0FFF7A2FC5B
:10196C00386108E0FFF79EFC02463B69D31A642BF2
:10197C0001D90323E6E1534B1B6803F40033002B1E
:10198C00F0D100E000BF7B681B6803F00203002B62
:10199C0063D04C4B5B6803F00C03002B0BD0494B12
:1019AC005B6803F00C03082B1CD1464B5B6803F4FB
:1019BC008033002B16D1434B1B6803F00203002B22
:1019CC0005D07B681B69012B01D00123BAE13D4B8B
:1019DC001B6823F0F8027B685B69DB003949134311
:1019EC000B603AE07B681B69002B20D0364B012240
:1019FC001A60FFF757FC386108E0FFF753FC02460A
:101A0C003B69D31A022B01D903239BE12D4B1B6895
:101A1C0003F00203002BF0D02A4B1B6823F0F802D2
:101A2C007B685B69DB00274913430B6015E0264B91
:101A3C0000221A60FFF736FC386108E0FFF732FC31
:101A4C0002463B69D31A022B01D903237AE11D4BC1
:101A5C001B6803F00203002BF0D17B681B6803F0BA
:101A6C000803002B3AD07B689B69002B19D0174BCD
:101A7C0001221A60FFF716FC386108E0FFF712FC30
:101A8C0002463B69D31A022B01D903235AE10D4BB1
:101A9C005B6A03F00203002BF0D0012000F09AFAED
:101AAC001CE00A4B00221A60FFF7FCFB38610FE0C8
:101ABC00FFF7F8FB02463B69D31A022B08D9032324
:101ACC0040E100BF0010024000004242800442424C
:101ADC009E4B5B6A03F00203002BE9D17B681B6809
:101AEC0003F00403002B00F0A6800023FB75974B3A
:101AFC00DB6903F08053002B0DD1944BDB69934AC7
:101B0C0043F08053D361914BDB6903F08053BB608E
:101B1C00BB680123FB758E4B1B6803F48073002B91
:101B2C0018D18B4B1B688A4A43F480731360FFF700
:101B3C00B9FB386108E0FFF7B5FB02463B69D31AE5
:101B4C00642B01D90323FDE0814B1B6803F48073E4
:101B5C00002BF0D07B68DB68012B06D17B4B1B6A1A
:101B6C007A4A43F0010313622DE07B68DB68002B9B
:101B7C000CD1764B1B6A754A23F001031362734B2D
:101B8C001B6A724A23F0040313621CE07B68DB6857
:101B9C00052B0CD16D4B1B6A6C4A43F0040313628A
:101BAC006A4B1B6A694A43F0010313620BE0674BF3
:101BBC001B6A664A23F001031362644B1B6A634A77
:101BCC0023F0040313627B68DB68002B15D0FFF74E
:101BDC0069FB38610AE0FFF765FB02463B69D31AE3
:101BEC0041F28832934201D90323ABE0574B1B6A75
:101BFC0003F00203002BEED014E0FFF753FB386127
:101C0C000AE0FFF74FFB02463B69D31A41F28832D8
:101C1C00934201D9032395E04C4B1B6A03F002035A
:101C2C00002BEED1FB7D012B05D1484BDB69474ADC
:101C3C0023F08053D3617B68DB69002B00F081803B
:101C4C00424B5B6803F00C03082B61D07B68DB69AB
:101C5C00022B46D13F4B00221A60FFF723FB386161
:101C6C0008E0FFF71FFB02463B69D31A022B01D990
:101C7C00032367E0354B1B6803F00073002BF0D196
:101C8C007B681B6AB3F5803F08D1304B5B6823F44B
:101C9C0000327B689B682D4913434B602B4B5B6870
:101CAC0023F474127B68196A7B685B6A0B432749BF
:101CBC0013434B60274B01221A60FFF7F3FA38618C
:101CCC0008E0FFF7EFFA02463B69D31A022B01D961
:101CDC00032337E01D4B1B6803F00073002BF0D07F
:101CEC002FE01C4B00221A60FFF7DCFA386108E089
:101CFC00FFF7D8FA02463B69D31A022B01D903230A
:101D0C0020E0124B1B6803F00073002BF0D118E09D
:101D1C007B68DB69012B01D1012313E00B4B5B6862
:101D2C00FB60FB6803F480327B681B6A9A4206D125
:101D3C00FB6803F470127B685B6A9A4201D0012342
:101D4C0000E0002318461837BD4680BD0010024045
:101D5C00007000406000424280B584B000AF7860F3
:101D6C0039607B68002B01D10123D0E06A4B1B68E2
:101D7C0003F007033A689A4210D9674B1B6823F0AB
:101D8C00070265493B6813430B60634B1B6803F008
:101D9C0007033A689A4201D00123B8E07B681B68BC
:101DAC0003F00203002B20D07B681B6803F00403B4
:101DBC00002B05D0594B5B68584A43F4E0635360E1
:101DCC007B681B6803F00803002B05D0534B5B6842
:101DDC00524A43F460535360504B5B6823F0F0025B
:101DEC007B689B684D4913434B607B681B6803F011
:101DFC000103002B40D07B685B68012B07D1474B5C
:101E0C001B6803F40033002B15D101237FE07B68A2
:101E1C005B68022B07D1414B1B6803F00073002B4E
:101E2C0009D1012373E03D4B1B6803F00203002B27
:101E3C0001D101236BE0394B5B6823F003027B6813
:101E4C005B68364913434B60FFF72CFAF8600AE0E5
:101E5C00FFF728FA0246FB68D31A41F28832934204
:101E6C0001D9032353E02D4B5B6803F00C027B6814
:101E7C005B689B009A42EBD1274B1B6803F007036E
:101E8C003A689A4210D2244B1B6823F0070222496D
:101E9C003B6813430B60204B1B6803F007033A6845
:101EAC009A4201D0012332E07B681B6803F00403E3
:101EBC00002B08D0194B5B6823F4E0627B68DB686D
:101ECC00164913434B607B681B6803F00803002B17
:101EDC0009D0124B5B6823F460527B681B69DB00F2
:101EEC000E4913434B6000F021F802460B4B5B6824
:101EFC001B0903F00F030A49CB5C22FA03F3094ACE
:101F0C001360094B1B681846FFF78AF90023184623
:101F1C001037BD4680BD00BF0020024000100240BB
:101F2C00A8280008340000203800002080B487B0B6
:101F3C0000AF0023FB600023BB6000237B61002308
:101F4C007B6000233B611E4B5B68FB60FB6803F00E
:101F5C000C03042B02D0082B03D027E0194B3B6158
:101F6C0027E0FB689B0C03F00F03174AD35C7B60E4
:101F7C00FB6803F48033002B10D0114B5B685B0CB7
:101F8C0003F00103114AD35CBB607B680D4A02FB72
:101F9C0003F2BB68B2FBF3F37B6104E07B680C4A91
:101FAC0002FB03F37B617B693B6102E0054B3B6108
:101FBC0000BF3B6918461C37BD4680BC704700BF4C
:101FCC000010024000127A00B8280008C828000847
:101FDC0000093D0080B485B000AF78600A4B1B68E7
:101FEC000A4AA2FB03235B0A7A6802FB03F3FB6039
:101FFC0000BFFB685A1EFA60002BF9D100BF00BF6E
:10200C001437BD4680BC704734000020D34D62109D
:10201C0080B582B000AF78607B68002B01D10123C2
:10202C0041E07B6893F83D30DBB2002B06D17B6836
:10203C00002283F83C207868FEF74CFF7B68022274
:10204C0083F83D207B681A687B6804331946104678
:10205C0000F056FA7B68012283F846207B68012247
:10206C0083F83E207B68012283F83F207B680122A5
:10207C0083F840207B68012283F841207B68012291
:10208C0083F842207B68012283F843207B6801227D
:10209C0083F844207B68012283F845207B68012269
:1020AC0083F83D20002318460837BD4680BD00004C
:1020BC0080B485B000AF78607B6893F83D30DBB2BC
:1020CC00012B01D0012335E07B68022283F83D20EF
:1020DC007B681B68DA687B681B6842F00102DA6077
:1020EC007B681B68164A934209D07B681B68B3F166
:1020FC00804F04D07B681B68124A934211D17B68D5
:10210C001B689B6803F00703FB60FB68062B10D071
:10211C007B681B681A687B681B6842F001021A60B6
:10212C0007E07B681B681A687B681B6842F0010239
:10213C001A60002318461437BD4680BC704700BF98
:10214C00002C01400004004080B584B000AF7860E2
:10215C007B681B68DB68FB607B681B681B69BB606A
:10216C00BB6803F00203002B20D0FB6803F00203D2
:10217C00002B1BD07B681B686FF002021A617B6816
:10218C0001221A777B681B689B6903F00303002B01
:10219C0003D0786800F098F905E0786800F08BF9C6
:1021AC00786800F09AF97B6800221A77BB6803F014
:1021BC000403002B20D0FB6803F00403002B1BD07E
:1021CC007B681B686FF004021A617B6802221A7725
:1021DC007B681B689B6903F44073002B03D0786801
:1021EC0000F072F905E0786800F065F9786800F0A5
:1021FC0074F97B6800221A77BB6803F00803002B84
:10220C0020D0FB6803F00803002B1BD07B681B68F5
:10221C006FF008021A617B6804221A777B681B68CE
:10222C00DB6903F00303002B03D0786800F04CF952
:10223C0005E0786800F03FF9786800F04EF97B68AB
:10224C0000221A77BB6803F01003002B20D0FB6828
:10225C0003F01003002B1BD07B681B686FF010027F
:10226C001A617B6808221A777B681B68DB6903F4A8
:10227C004073002B03D0786800F026F905E07868ED
:10228C0000F019F9786800F028F97B6800221A77B9
:10229C00BB6803F00103002B0CD0FB6803F00103B7
:1022AC00002B07D07B681B686FF001021A617868FD
:1022BC00FEF7C6FDBB6803F08003002B0CD0FB6857
:1022CC0003F08003002B07D07B681B686FF0800243
:1022DC001A61786800F06FFABB6803F04003002BBA
:1022EC000CD0FB6803F04003002B07D07B681B6805
:1022FC006FF040021A61786800F0F8F8BB6803F0E0
:10230C002003002B0CD0FB6803F02003002B07D01C
:10231C007B681B686FF020021A61786800F042FA43
:10232C0000BF1037BD4680BD80B584B000AF78606B
:10233C0039600023FB737B6893F83C30012B01D18F
:10234C000223B4E07B68012283F83C207B680222E4
:10235C0083F83D207B681B689B68BB60BB6823F0DF
:10236C007703BB60BB6823F47F43BB607B681B684F
:10237C00BA689A603B681B68B3F5005F3ED0B3F552
:10238C00005F00F28780B3F5805F00F08680B3F5C4
:10239C00805F7FD8702B1AD0702B7BD8602B50D0DD
:1023AC00602B77D8502B3CD0502B73D8402B58D067
:1023BC00402B6FD8302B64D0302B6BD8202B60D0B7
:1023CC00202B67D8002B5CD0102B5AD062E07B6896
:1023DC0018683B6899683B685A683B68DB6800F092
:1023EC006AF97B681B689B68BB60BB6843F077032A
:1023FC00BB607B681B68BA689A604FE07B681868A2
:10240C003B6899683B685A683B68DB6800F053F995
:10241C007B681B689A687B681B6842F480429A60F0
:10242C003CE07B6818683B6859683B68DB681A4677
:10243C0000F0CAF87B681B685021184600F021F99F
:10244C002CE07B6818683B6859683B68DB681A4667
:10245C0000F0E8F87B681B686021184600F011F961
:10246C001CE07B6818683B6859683B68DB681A4657
:10247C0000F0AAF87B681B684021184600F001F9AF
:10248C000CE07B681A683B681B681946104600F024
:10249C00F8F803E00123FB7300E000BF7B68012226
:1024AC0083F83D207B68002283F83C20FB7B184698
:1024BC001037BD4680BD80B483B000AF786000BFDC
:1024CC000C37BD4680BC704780B483B000AF7860D9
:1024DC0000BF0C37BD4680BC704780B483B000AFE2
:1024EC00786000BF0C37BD4680BC704780B483B0A9
:1024FC0000AF786000BF0C37BD4680BC7047000051
:10250C0080B485B000AF786039607B681B68FB6075
:10251C007B682B4A934207D07B68B3F1804F03D082
:10252C007B68284A934208D1FB6823F07003FB6058
:10253C003B685B68FA681343FB607B68204A9342F4
:10254C0007D07B68B3F1804F03D07B681D4A934260
:10255C0008D1FB6823F44073FB603B68DB68FA68C6
:10256C001343FB60FB6823F080023B685B691343F9
:10257C00FB607B68FA681A603B689A687B68DA6271
:10258C003B681A687B689A627B680D4A934203D158
:10259C003B681A697B681A637B6801225A617B6805
:1025AC001B6903F00103002B05D07B681B6923F02A
:1025BC0001027B681A6100BF1437BD4680BC7047AE
:1025CC00002C01400004004080B487B000AFF860DC
:1025DC00B9607A60FB681B6A7B61FB681B6A23F03D
:1025EC000102FB681A62FB689B693B613B6923F043
:1025FC00F0033B617B681B013A6913433B617B69C8
:10260C0023F00A037B617A69BB6813437B61FB6827
:10261C003A699A61FB687A691A6200BF1C37BD4639
:10262C0080BC704780B487B000AFF860B9607A6046
:10263C00FB681B6A7B61FB681B6A23F01002FB685A
:10264C001A62FB689B693B613B6923F470433B61F5
:10265C007B681B033A6913433B617B6923F0A0033E
:10266C007B61BB681B017A6913437B61FB683A6928
:10267C009A61FB687A691A6200BF1C37BD4680BC40
:10268C00704780B485B000AF786039607B689B6818
:10269C00FB60FB6823F07003FB603A68FB68134334
:1026AC0043F00703FB607B68FA689A6000BF14373D
:1026BC00BD4680BC704780B487B000AFF860B9608D
:1026CC007A603B60FB689B687B617B6923F47F438A
:1026DC007B613B681A027B681A43BB6813437A69B7
:1026EC0013437B61FB687A699A6000BF1C37BD4657
:1026FC0080BC704780B485B000AF786039607B686F
:10270C0093F83C30012B01D1022341E07B6801227C
:10271C0083F83C207B68022283F83D207B681B6891
:10272C005B68FB607B681B689B68BB60FB6823F085
:10273C007003FB603B681B68FA681343FB607B68A3
:10274C001B68FA685A607B681B68144A934209D06C
:10275C007B681B68B3F1804F04D07B681B68104A00
:10276C0093420CD1BB6823F08003BB603B685B6871
:10277C00BA681343BB607B681B68BA689A607B6855
:10278C00012283F83D207B68002283F83C20002343
:10279C0018461437BD4680BC704700BF002C014062
:1027AC000004004080B483B000AF786000BF0C37E9
:1027BC00BD4680BC704780B483B000AF786000BF6A
:1027CC000C37BD4680BC704770B500260C4D0D4CC7
:1027DC00641BA410A64209D100F030F800260A4D63
:1027EC000A4C641BA410A64205D170BD55F8043BDD
:1027FC0098470136EEE755F8043B98470136F2E767
:10280C00CC280008CC280008CC280008D0280008C8
:10281C000A44914200F1FF3300D1704710B511F812
:10282C00014B914203F8014FF9D110BD034602440C
:10283C00934200D1704703F8011BF9E7F8B500BFCC
:10284C00F8BC08BC9E467047F8B500BFF8BC08BC85
:04285C009E467047DD
:10286000010101010101000001010000000001015E
:10287000000101000101010101000001000101004E
:10288000000101010001010001010100010101013C
:10289000010101010000000001010101010101012C
:1028A0000101010001010000000000000000000023
:1028B00001020304060708090203040506070809C4
:0C28C0000A0B0C0D0E0F1010010200009E
:0428CC0031010008CE
:0428D0000D010008EE
:1028D40001000000050000000300000001000000EA
:1028E4000008014000080140000801400200040003
:1028F40008000000050000000200000003000000C2
:10290400E803000000127A0010000000010000003B
:04000005080011B529
:00000001FF
