:020000040800F2
:1000000000280020E5100008751000087B1000088B
:1000100081100008871000088D1000080000000003
:100020000000000000000000000000009310000825
:100030009F10000800000000AB100008B710000877
:100040002D1100082D1100082D1100082D11000898
:100050002D1100082D1100082D1100082D11000888
:100060002D1100082D1100082D1100082D11000878
:100070002D1100082D1100082D1100082D11000868
:100080002D1100082D1100082D1100082D11000858
:100090002D1100082D1100082D1100082D11000848
:1000A0002D1100082D1100082D1100082D11000838
:1000B000C51000082D110008000000002D110008D7
:1000C0002D11000800000000000000002D110008A4
:1000D000000000002D1100082D1100080000000094
:1000E0002D1100082D1100082D110008000000003E
:1000F0000000000000000000000000000000000000
:0C01000000000000000000005FF808F1A3
:10010C0010B5054C237833B9044B13B10448AFF345
:10011C0000800123237010BD2C0000200000000083
:10012C004C27000808B5034B1BB103490348AFF338
:10013C00008008BD00000000300000204C270008A3
:10014C0080B483B000AF7860074B1B687A6892FB71
:10015C00F3F3064A1360064B00221A6000BF0C37FB
:10016C00BD4680BC704700BF000000204800002046
:10017C004C00002080B483B000AF7860074B1B6844
:10018C007A6892FBF3F3064A1360064B00221A605E
:10019C0000BF0C37BD4680BC704700BF000000207C
:1001AC00500000205400002080B483B000AF786071
:1001BC00074B1B687A6892FBF3F3064A1360064BF5
:1001CC0000221A6000BF0C37BD4680BC704700BFD0
:1001DC0000000020580000205C00002080B483B098
:1001EC0000AF7860074B1B687A6892FBF3F3064A02
:1001FC001360064B00221A6000BF0C37BD4680BC52
:10020C00704700BF00000020600000206400002048
:10021C0080B400AF214B1B68002B0BDD1F4B1B6800
:10022C00013B1E4A13601D4B1B68002B02D11C4B5B
:10023C0001221A601B4B1B68002B0BDD194B1B6832
:10024C00013B184A1360174B1B68002B02D1164B4D
:10025C0001221A60154B1B68002B0BDD134B1B681E
:10026C00013B124A1360114B1B68002B02D1104B3F
:10027C0001221A600F4B1B68002B0BDD0D4B1B680A
:10028C00013B0C4A13600B4B1B68002B02D10A4B31
:10029C0001221A6000BFBD4680BC70474800002098
:1002AC004C0000205000002054000020580000207A
:1002BC005C000020600000206400002080B594B039
:1002CC0000AF78604C4A07F10803114646221846E5
:1002DC0002F020FA7B68002BC0F28A807B68092B25
:1002EC0000F386807A681346DB009B1A07F15002F4
:1002FC001344483B1B78002B0CBF01230023DBB2BB
:10030C001A4601213D4801F0F7F97A681346DB00E3
:10031C009B1A07F150021344473B1B78002B0CBF70
:10032C0001230023DBB21A460221344801F0E4F920
:10033C007A681346DB009B1A07F150021344463BC4
:10034C001B78002B0CBF01230023DBB21A460421BF
:10035C002A4801F0D1F97A681346DB009B1A07F1A1
:10036C0050021344453B1B78002B0CBF0123002388
:10037C00DBB21A460821214801F0BEF97A6813460F
:10038C00DB009B1A07F150021344443B1B78002BF3
:10039C000CBF01230023DBB21A461021174801F0D1
:1003AC00ABF97A681346DB009B1A07F15002134431
:1003BC00433B1B78002B0CBF01230023DBB21A46F6
:1003CC0020210E4801F098F97A681346DB009B1A3D
:1003DC0007F150021344423B1B78002B0CBF012346
:1003EC000023DBB21A464021044801F085F900E0F5
:1003FC0000BF5037BD4680BD64270008000C01408B
:10040C0080B400AF1A4B1B681A4A82FB031292107D
:10041C00DB17D31A184A1360154B1968154B83FB5D
:10042C0001239A10CB17D21A13469B0013445B007E
:10043C00CA1A114B5A60114B1B680E4A82FB0312ED
:10044C009210DB17D31A0C4A93600C4B1968094BAA
:10045C0083FB01239A10CB17D21A13469B0013442B
:10046C005B00CA1A044BDA6000BFBD4680BC704703
:10047C00040000206766666610000020080000205B
:10048C0080B582B000AF78607B68032B7AD801A26C
:10049C0052F823F0B1040008E90400082105000813
:1004AC005905000800224021394801F025F90122A4
:1004BC008021374801F020F901224FF48071344833
:1004CC0001F01AF901224FF40071314801F014F9CE
:1004DC00304B1B681846FFF7F1FE54E00122402117
:1004EC002B4801F009F900228021294801F004F978
:1004FC0001224FF48071264801F0FEF801224FF4DE
:10050C000071234801F0F8F8224B5B681846FFF79E
:10051C00D5FE38E0012240211D4801F0EDF8012202
:10052C0080211B4801F0E8F800224FF48071184834
:10053C0001F0E2F801224FF40071154801F0DCF8EB
:10054C00144B9B681846FFF7B9FE1CE001224021B2
:10055C000F4801F0D1F8012280210D4801F0CCF8B0
:10056C0001224FF480710A4801F0C6F800224FF4C2
:10057C000071074801F0C0F8064BDB681846FFF71E
:10058C009DFE00E000BF00BF0837BD4680BD00BF28
:10059C00000801401000002080B582B000AF7860E8
:1005AC007B68072B00F2148301A252F823F000BFE2
:1005BC00DD0500089B06000859070008170800080D
:1005CC00DD0800089B090008590A0008170B0008F1
:1005DC0000220421BC4801F08FF801220821BA48FE
:1005EC0001F08AF801224FF48061B74801F084F8D9
:1005FC0001224FF40061B44801F07EF801224FF45F
:10060C008051B14801F078F801224FF40051AE4806
:10061C0001F072F801224FF48041AB4801F06CF804
:10062C0001224FF40041A84801F066F801224FF472
:10063C008071A64801F060F801224FF40071A348C4
:10064C0001F05AF801224FF48061A04801F054F8EF
:10065C0001224FF400619D4801F04EF801224FF445
:10066C0080519A4801F048F801224FF40051974804
:10067C0001F042F801224FF48041944801F03CF81B
:10068C0001224FF40041914801F036F8FFE20122BB
:10069C0004218D4801F030F8002208218A4801F02D
:1006AC002BF801224FF48061874801F025F80122D4
:1006BC004FF40061844801F01FF801224FF480517F
:1006CC00814801F019F801224FF400517E4801F0E5
:1006DC0013F801224FF480417B4801F00DF8012200
:1006EC004FF40041784801F007F801224FF4807173
:1006FC00764801F001F800224FF40071734800F0C5
:10070C00FBFF00224FF48061704800F0F5FF0022DF
:10071C004FF400616D4800F0EFFF00224FF4805160
:10072C006A4800F0E9FF00224FF40051674800F0DE
:10073C00E3FF00224FF48041644800F0DDFF01220A
:10074C004FF40041614800F0D7FFA0E201220421E0
:10075C005D4800F0D1FF012208215B4800F0CCFF7E
:10076C0000224FF48061584800F0C6FF01224FF47C
:10077C000061554800F0C0FF01224FF480515248EF
:10078C0000F0BAFF01224FF400514F4800F0B4FFC3
:10079C0001224FF480414C4800F0AEFF01224FF48F
:1007AC000041494800F0A8FF00224FF480714748EF
:1007BC0000F0A2FF01224FF40071444800F09CFFAE
:1007CC0001224FF48061414800F096FF00224FF463
:1007DC0000613E4800F090FF01224FF480513B48ED
:1007EC0000F08AFF01224FF40051384800F084FFDA
:1007FC0001224FF48041354800F07EFF01224FF476
:10080C000041324800F078FF41E2012204212E48D9
:10081C0000F072FF012208212B4800F06DFF01222D
:10082C004FF48061284800F067FF00224FF400610C
:10083C00254800F061FF01224FF48051224800F05E
:10084C005BFF01224FF400511F4800F055FF0122BD
:10085C004FF480411C4800F04FFF01224FF400413F
:10086C00194800F049FF00224FF48071174800F03E
:10087C0043FF01224FF40071144800F03DFF0122A8
:10088C004FF48061114800F037FF00224FF40061F3
:10089C000E4800F031FF01224FF480510B4800F05C
:1008AC002BFF01224FF40051084800F025FF0122D4
:1008BC004FF48041054800F01FFF01224FF4004126
:1008CC00024800F019FFE2E100080140000C014071
:1008DC0001220421BC4800F00FFF01220821BA4874
:1008EC0000F00AFF01224FF48061B74800F004FFCA
:1008FC0001224FF40061B44800F0FEFE00224FF4D8
:10090C008051B14800F0F8FE01224FF40051AE487E
:10091C0000F0F2FE01224FF48041AB4800F0ECFEF7
:10092C0001224FF40041A84800F0E6FE00224FF4EB
:10093C008071A64800F0E0FE01224FF40071A3483C
:10094C0000F0DAFE01224FF48061A04800F0D4FEE2
:10095C0000224FF400619D4800F0CEFE01224FF4BE
:10096C0080519A4800F0C8FE01224FF4005197487C
:10097C0000F0C2FE01224FF48041944800F0BCFE0E
:10098C0001224FF40041914800F0B6FE7FE10122B4
:10099C0004218D4800F0B0FE012208218A4800F0A5
:1009AC00ABFE01224FF48061874800F0A5FE0122C6
:1009BC004FF40061844800F09FFE01224FF48051F7
:1009CC00814800F099FE00224FF400517E4800F05F
:1009DC0093FE01224FF480417B4800F08DFE0122F2
:1009EC004FF40041784800F087FE01224FF48071EB
:1009FC00764800F081FE00224FF40071734800F03D
:100A0C007BFE00224FF48061704800F075FE0022DE
:100A1C004FF400616D4800F06FFE00224FF48051DE
:100A2C006A4800F069FE00224FF40051674800F05C
:100A3C0063FE00224FF48041644800F05DFE012209
:100A4C004FF40041614800F057FE20E101220421DF
:100A5C005D4800F051FE012208215B4800F04CFE7D
:100A6C0001224FF48061584800F046FE01224FF4F9
:100A7C000061554800F040FE01224FF4805152486D
:100A8C0000F03AFE01224FF400514F4800F034FEC2
:100A9C0000224FF480414C4800F02EFE01224FF40E
:100AAC000041494800F028FE01224FF4807147486C
:100ABC0000F022FE01224FF40071444800F01CFEAD
:100ACC0001224FF48061414800F016FE01224FF4E0
:100ADC0000613E4800F010FE01224FF480513B486B
:100AEC0000F00AFE01224FF40051384800F004FED9
:100AFC0001224FF48041354800F0FEFD01224FF4F5
:100B0C000041324800F0F8FDC1E0012204212E48DA
:100B1C0000F0F2FD012208212B4800F0EDFD01222E
:100B2C004FF48061284800F0E7FD01224FF400618A
:100B3C00254800F0E1FD01224FF48051224800F0DD
:100B4C00DBFD01224FF400511F4800F0D5FD0122BE
:100B5C004FF480411C4800F0CFFD00224FF40041BF
:100B6C00194800F0C9FD01224FF48071174800F0BC
:100B7C00C3FD01224FF40071144800F0BDFD0122A9
:100B8C004FF48061114800F0B7FD01224FF4006171
:100B9C000E4800F0B1FD01224FF480510B4800F0DB
:100BAC00ABFD01224FF40051084800F0A5FD0122D5
:100BBC004FF48041054800F09FFD01224FF40041A5
:100BCC00024800F099FD62E000080140000C014071
:100BDC0001220421304800F08FFD012208212E480B
:100BEC0000F08AFD01224FF480612B4800F084FD57
:100BFC0001224FF40061284800F07EFD01224FF4E1
:100C0C008051254800F078FD01224FF40051224814
:100C1C0000F072FD01224FF480411F4800F06CFD82
:100C2C0001224FF400411C4800F066FD00224FF4F5
:100C3C0080711A4800F060FD00224FF400711748D3
:100C4C0000F05AFD00224FF48061144800F054FD6E
:100C5C0000224FF40061114800F04EFD00224FF4C9
:100C6C0080510E4800F048FD00224FF400510B4813
:100C7C0000F042FD00224FF48041084800F03CFD9A
:100C8C0000224FF40041054800F036FD00BF00BFC4
:100C9C000837BD4680BD00BF00080140000C014074
:100CAC0080B500AF00F03EFA00F09AF800F020F9A1
:100CBC0000F0D2F83F4801F07DF94FF47A70FFF75D
:100CCC003FFA4FF4FA70FFF755FAFA20FFF76CFA77
:100CDC006420FFF783FA384B1B68012B13D1642077
:100CEC00FFF77CFA354B1B681846FFF755FC334B66
:100CFC001B680133314A1360304B1B68072B02DD34
:100D0C002E4B00221A602E4B1B68012B13D1FA209C
:100D1C00FFF74AFA2B4B1B681846FFF7B1FB294B20
:100D2C001B680133274A1360264B1B68032B02DD1B
:100D3C00244B00221A60244B1B68012B0BD14FF45F
:100D4C00FA70FFF717FA2021204800F0EDFC102173
:100D5C001E4800F0E9FC1E4B1B68012BBBD14FF465
:100D6C007A70FFF7EDF91B4B1B680133194A1360BE
:100D7C00184B1B683B2B07DD164B00221A60164BD9
:100D8C001B680133144A1360134B1B683B2B07DDA4
:100D9C00114B00221A60114B1B6801330F4A136070
:100DAC000E4B1B68172B02DD0C4B00221A60FFF751
:100DBC0027FB90E770000020640000206C000020EE
:100DCC005C00002068000020540000200008014056
:100DDC004C0000200C000020080000200400002023
:100DEC0080B590B000AF07F11803282200211846F7
:100DFC0001F09EFC3B1D00221A605A609A60DA607A
:100E0C001A610223BB610123BB621023FB62002326
:100E1C007B6307F11803184600F0A0FC0346002B77
:100E2C0001D000F0C5F80F237B600023BB600023CA
:100E3C00FB6000233B6100237B613B1D00211846B6
:100E4C0000F00CFF0346002B01D000F0B1F800BFFE
:100E5C004037BD4680BD000080B586B000AF07F1BD
:100E6C00080300221A605A609A60DA603B4600223E
:100E7C001A605A601D4B4FF080421A601B4B41F6B2
:100E8C003F725A60194B00229A60184B0922DA60A3
:100E9C00164B00221A61154B00229A61134801F07F
:100EAC0039F80346002B01D000F082F84FF4805340
:100EBC00BB6007F1080319460C4801F0B7F903466B
:100ECC00002B01D000F074F800233B6000237B6002
:100EDC003B461946054801F08FFB0346002B01D019
:100EEC0000F066F800BF1837BD4680BD70000020CA
:100EFC0080B586B000AF07F1080300221A605A6073
:100F0C009A60DA60224B9B69214A43F00403936197
:100F1C001F4B9B6903F004037B607B681C4B9B6934
:100F2C001B4A43F008039361194B9B6903F00803B8
:100F3C003B603B6800224FF6FC71164800F0DCFB6E
:100F4C0000224FF67F71144800F0D6FB4FF6FC736D
:100F5C00BB600123FB6000233B6102237B6107F133
:100F6C00080319460B4800F04DFA4FF67F73BB602F
:100F7C000123FB6000233B6102237B6107F1080323
:100F8C001946054800F03EFA00BF1837BD4680BD33
:100F9C000010024000080140000C014080B582B0F6
:100FAC0000AF7860FFF734F900BF0837BD4680BD4D
:100FBC0080B400AF72B600BFFEE7000080B485B00D
:100FCC0000AF154B9B69144A43F001039361124B1C
:100FDC009B6903F00103BB60BB680F4BDB690E4AD6
:100FEC0043F08053D3610C4BDB6903F080537B607F
:100FFC007B680A4B5B68FB60FB6823F0E063FB607B
:10100C00FB6843F08063FB60044AFB68536000BFDD
:10101C001437BD4680BC70470010024000000140F0
:10102C0080B584B000AF78607B681B68B3F1804FEB
:10103C0013D10C4BDB690B4A43F00103D361094B11
:10104C00DB6903F00103FB60FB68002200211C201C
:10105C0000F0A1F91C2000F0BAF900BF1037BD4612
:10106C0080BD00BF0010024080B400AFFEE780B42A
:10107C0000AFFEE780B400AFFEE780B400AFFEE740
:10108C0080B400AFFEE780B400AF00BFBD4680BCAB
:10109C00704780B400AF00BFBD4680BC704780B4C1
:1010AC0000AF00BFBD4680BC704780B500AF00F0FC
:1010BC007FF800BF80BD000080B500AF024800F093
:1010CC00C5FF00BF80BD00BF7000002080B400AF22
:1010DC0000BFBD4680BC7047FFF7F8FF0B480C49BA
:1010EC000C4A002302E0D458C4500433C4188C4278
:1010FC00F9D3094A094C002301E013600432A242DF
:10110C00FBD301F0E3FAFFF7CBFD704700000020A2
:10111C002C000020D82700082C000020BC00002048
:10112C00FEE7000080B500AF084B1B68074A43F090
:10113C0010031360032000F023F90F2000F008F8CF
:10114C00FFF73CFF0023184680BD00BF0020024083
:10115C0080B582B000AF7860124B1A68124B1B78C6
:10116C0019464FF47A73B3FBF1F3B2FBF3F3184661
:10117C0000F03BF90346002B01D001230EE07B6805
:10118C000F2B0AD8002279684FF0FF3000F003F9DA
:10119C00064A7B681360002300E0012318460837D9
:1011AC00BD4680BD20000020280000202400002027
:1011BC0080B400AF054B1B781A46054B1B681344D3
:1011CC00034A136000BFBD4680BC70472800002056
:1011DC00B800002080B400AF024B1B681846BD4617
:1011EC0080BC7047B800002080B485B000AF786038
:1011FC007B6803F00703FB600C4BDB68BB60BA68D1
:10120C004FF6FF031340BB60FB681A02BB68134325
:10121C0043F0BF6343F40033BB60044ABB68D36044
:10122C0000BF1437BD4680BC704700BF00ED00E026
:10123C0080B400AF044BDB681B0A03F007031846AD
:10124C00BD4680BC704700BF00ED00E080B483B0A9
:10125C0000AF0346FB7197F90730002B0BDBFB79D2
:10126C0003F01F02064997F907305B09012000FAC9
:10127C0002F241F8232000BF0C37BD4680BC7047FA
:10128C0000E100E080B483B000AF03463960FB712D
:10129C0097F90730002B0ADB3B68DAB20C4997F957
:1012AC0007301201D2B20B4483F800230AE03B68EA
:1012BC00DAB20849FB7903F00F03043B1201D2B2F6
:1012CC000B441A7600BF0C37BD4680BC704700BF7C
:1012DC0000E100E000ED00E080B489B000AFF86000
:1012EC00B9607A60FB6803F00703FB61FB69C3F12B
:1012FC000703042B28BF0423BB61FB690433062BB3
:10130C0002D9FB69033B00E000237B614FF0FF3205
:10131C00BB6902FA03F3DA43BB681A407B699A4053
:10132C004FF0FF317B6901FA03F3D9437B680B4023
:10133C00134318462437BD4680BC704780B582B035
:10134C0000AF78607B68013BB3F1807F01D3012350
:10135C000FE00A4A7B68013B53600F214FF0FF30CE
:10136C00FFF790FF054B00229A60044B07221A608E
:10137C00002318460837BD4680BD00BF10E000E0D2
:10138C0080B582B000AF78607868FFF72DFF00BFA2
:10139C000837BD4680BD80B586B000AF0346B96046
:1013AC007A60FB7300237B61FFF742FF78617A68F8
:1013BC00B9687869FFF790FF024697F90F3011462C
:1013CC001846FFF75FFF00BF1837BD4680BD80B5DC
:1013DC0082B000AF0346FB7197F907301846FFF750
:1013EC0035FF00BF0837BD4680BD80B582B000AF69
:1013FC0078607868FFF7A2FF034618460837BD46A9
:10140C0080BD000080B48BB000AF786039600023E1
:10141C007B6200233B6248E101227B6A02FA03F300
:10142C00FB613B681B68FA691340BB61BA69FB69D5
:10143C009A4240F037813B685B68A34A93425ED086
:10144C00A14A934275D8A14A934258D09F4A9342DD
:10145C006FD89F4A934252D09D4A934269D89D4A75
:10146C0093424CD09B4A934263D89B4A934246D0BA
:10147C00994A93425DD8122B2AD8122B59D801A223
:10148C0052F823F00B150008E5140008F7140008B7
:10149C00391500083F1500083F1500083F150008D6
:1014AC003F1500083F1500083F1500083F150008C0
:1014BC003F1500083F1500083F1500083F150008B0
:1014CC003F1500083F150008ED1400080115000831
:1014DC00824A934213D02CE03B68DB683B6229E0E4
:1014EC003B68DB6804333B6224E03B68DB68083311
:1014FC003B621FE03B68DB680C333B621AE03B68E5
:10150C009B68002B02D104233B6213E03B689B6871
:10151C00012B05D108233B627B68FA691A6109E04B
:10152C0008233B627B68FA695A6103E000233B6243
:10153C0000E000BFBB69FF2B01D87B6801E07B6832
:10154C0004337B61BB69FF2B02D87B6A9B0002E0F2
:10155C007B6A083B9B003B617B691A680F213B69E6
:10156C0001FA03F3DB431A40396A3B6901FA03F3CE
:10157C001A437B691A603B685B6803F08053002B4D
:10158C0000F09080564B9B69554A43F001039361E0
:10159C00534B9B6903F00103BB60BB68514A7B6AE8
:1015AC009B08023352F82330FB607B6A03F0030381
:1015BC009B000F2202FA03F3DB43FA681340FB6033
:1015CC007B68494A93420DD07B68484A934207D0C6
:1015DC007B68474A934201D1022304E0032302E0D3
:1015EC00012300E000237A6A02F003029200934088
:1015FC00FA681343FB603B497B6A9B080233FA6829
:10160C0041F823203B685B6803F48013002B06D061
:10161C00384B9A683749BB6913438B6006E0354BEE
:10162C009A68BB69DB43334913408B603B685B684A
:10163C0003F40013002B06D02E4BDA682D49BB693E
:10164C001343CB6006E02B4BDA68BB69DB432949BB
:10165C001340CB603B685B6803F40033002B06D06F
:10166C00244B5A682349BB6913434B6006E0214B5A
:10167C005A68BB69DB431F4913404B603B685B688E
:10168C0003F48033002B06D01A4B1A681949BB6936
:10169C0013430B6006E0174B1A68BB69DB43154913
:1016AC0013400B607B6A01337B623B681A687B6A70
:1016BC0022FA03F3002B7FF4AFAE00BF00BF2C3730
:1016CC00BD4680BC704700BF0000321000003110D6
:1016DC000000221000002110000012100000111058
:1016EC00001002400000014000080140000C0140C5
:1016FC00001001400004014080B483B000AF78605A
:10170C000B467B8013467B707B78002B03D07A884A
:10171C007B681A6103E07B881A047B681A6100BF3E
:10172C000C37BD4680BC704780B485B000AF786084
:10173C000B467B807B68DB68FB607A88FB68134018
:10174C001A04FB68D9437B880B401A437B681A61E7
:10175C0000BF1437BD4680BC7047000080B586B012
:10176C0000AF78607B68002B01D101236CE27B68B1
:10177C001B6803F00103002B00F08780924B5B6821
:10178C0003F00C03042B0CD08F4B5B6803F00C03A1
:10179C00082B12D18C4B5B6803F48033B3F5803F7C
:1017AC000BD1894B1B6803F40033002B6CD07B6886
:1017BC005B68002B68D1012346E27B685B68B3F55C
:1017CC00803F06D1804B1B687F4A43F48033136003
:1017DC002EE07B685B68002B0CD17B4B1B687A4A34
:1017EC0023F480331360784B1B68774A23F48023EF
:1017FC0013601DE07B685B68B3F5A02F0CD1724BB6
:10180C001B68714A43F4802313606F4B1B686E4A4C
:10181C0043F4803313600BE06B4B1B686A4A23F470
:10182C0080331360684B1B68674A23F48023136072
:10183C007B685B68002B13D0FFF7CCFC386108E0A9
:10184C00FFF7C8FC02463B69D31A642B01D903236A
:10185C00FAE15D4B1B6803F40033002BF0D014E06D
:10186C00FFF7B8FC386108E0FFF7B4FC02463B69AF
:10187C00D31A642B01D90323E6E1534B1B6803F401
:10188C000033002BF0D100E000BF7B681B6803F035
:10189C000203002B63D04C4B5B6803F00C03002B52
:1018AC000BD0494B5B6803F00C03082B1CD1464B47
:1018BC005B6803F48033002B16D1434B1B6803F099
:1018CC000203002B05D07B681B69012B01D001237F
:1018DC00BAE13D4B1B6823F0F8027B685B69DB00C7
:1018EC00394913430B603AE07B681B69002B20D00D
:1018FC00364B01221A60FFF76DFC386108E0FFF7E8
:10190C0069FC02463B69D31A022B01D903239BE1E4
:10191C002D4B1B6803F00203002BF0D02A4B1B68E5
:10192C0023F0F8027B685B69DB00274913430B60EB
:10193C0015E0264B00221A60FFF74CFC386108E0DA
:10194C00FFF748FC02463B69D31A022B01D903234B
:10195C007AE11D4B1B6803F00203002BF0D17B686E
:10196C001B6803F00803002B3AD07B689B69002BA3
:10197C0019D0174B01221A60FFF72CFC386108E0D4
:10198C00FFF728FC02463B69D31A022B01D903232B
:10199C005AE10D4B5B6A03F00203002BF0D00120DF
:1019AC0000F09AFA1CE00A4B00221A60FFF712FCB6
:1019BC0038610FE0FFF70EFC02463B69D31A022B8D
:1019CC0008D9032340E100BF00100240000042424E
:1019DC00800442429E4B5B6A03F00203002BE9D168
:1019EC007B681B6803F00403002B00F0A680002327
:1019FC00FB75974BDB6903F08053002B0DD1944B97
:101A0C00DB69934A43F08053D361914BDB6903F05C
:101A1C008053BB60BB680123FB758E4B1B6803F4C2
:101A2C008073002B18D18B4B1B688A4A43F480734C
:101A3C001360FFF7CFFB386108E0FFF7CBFB0246E2
:101A4C003B69D31A642B01D90323FDE0814B1B683E
:101A5C0003F48073002BF0D07B68DB68012B06D17C
:101A6C007B4B1B6A7A4A43F0010313622DE07B68BF
:101A7C00DB68002B0CD1764B1B6A754A23F00103F3
:101A8C001362734B1B6A724A23F0040313621CE04B
:101A9C007B68DB68052B0CD16D4B1B6A6C4A43F0E1
:101AAC00040313626A4B1B6A694A43F00103136215
:101ABC000BE0674B1B6A664A23F001031362644B0D
:101ACC001B6A634A23F0040313627B68DB68002BF8
:101ADC0015D0FFF77FFB38610AE0FFF77BFB02466E
:101AEC003B69D31A41F28832934201D90323ABE00C
:101AFC00574B1B6A03F00203002BEED014E0FFF7E8
:101B0C0069FB38610AE0FFF765FB02463B69D31AB3
:101B1C0041F28832934201D9032395E04C4B1B6A66
:101B2C0003F00203002BEED1FB7D012B05D1484BBA
:101B3C00DB69474A23F08053D3617B68DB69002B58
:101B4C0000F08180424B5B6803F00C03082B61D0E2
:101B5C007B68DB69022B46D13F4B00221A60FFF7F2
:101B6C0039FB386108E0FFF735FB02463B69D31AB5
:101B7C00022B01D9032367E0354B1B6803F000737C
:101B8C00002BF0D17B681B6AB3F5803F08D1304B3A
:101B9C005B6823F400327B689B682D4913434B60D0
:101BAC002B4B5B6823F474127B68196A7B685B6A45
:101BBC000B43274913434B60274B01221A60FFF755
:101BCC0009FB386108E0FFF705FB02463B69D31AB5
:101BDC00022B01D9032337E01D4B1B6803F0007364
:101BEC00002BF0D02FE01C4B00221A60FFF7F2FA0A
:101BFC00386108E0FFF7EEFA02463B69D31A022B74
:101C0C0001D9032320E0124B1B6803F00073002B57
:101C1C00F0D118E07B68DB69012B01D1012313E0C3
:101C2C000B4B5B68FB60FB6803F480327B681B6AC0
:101C3C009A4206D1FB6803F470127B685B6A9A4285
:101C4C0001D0012300E0002318461837BD4680BDA3
:101C5C0000100240007000406000424280B584B029
:101C6C0000AF786039607B68002B01D10123D0E094
:101C7C006A4B1B6803F007033A689A4210D9674B0A
:101C8C001B6823F0070265493B6813430B60634BE9
:101C9C001B6803F007033A689A4201D00123B8E0AD
:101CAC007B681B6803F00203002B20D07B681B6849
:101CBC0003F00403002B05D0594B5B68584A43F4DE
:101CCC00E06353607B681B6803F00803002B05D0AE
:101CDC00534B5B68524A43F460535360504B5B6800
:101CEC0023F0F0027B689B684D4913434B607B6883
:101CFC001B6803F00103002B40D07B685B68012B51
:101D0C0007D1474B1B6803F40033002B15D101237B
:101D1C007FE07B685B68022B07D1414B1B6803F0AB
:101D2C000073002B09D1012373E03D4B1B6803F0BA
:101D3C000203002B01D101236BE0394B5B6823F0CC
:101D4C0003027B685B68364913434B60FFF742FA2A
:101D5C00F8600AE0FFF73EFA0246FB68D31A41F23C
:101D6C008832934201D9032353E02D4B5B6803F077
:101D7C000C027B685B689B009A42EBD1274B1B687B
:101D8C0003F007033A689A4210D2244B1B6823F0E5
:101D9C00070222493B6813430B60204B1B6803F07E
:101DAC0007033A689A4201D0012332E07B681B6832
:101DBC0003F00403002B08D0194B5B6823F4E0629A
:101DCC007B68DB68164913434B607B681B6803F028
:101DDC000803002B09D0124B5B6823F460527B681C
:101DEC001B69DB000E4913434B6000F021F80246DF
:101DFC000B4B5B681B0903F00F030A49CB5C22FAFF
:101E0C0003F3094A1360094B1B681846FFF7A0F946
:101E1C00002318461037BD4680BD00BF002002408D
:101E2C0000100240AC2700082000002024000020F5
:101E3C0080B487B000AF0023FB600023BB6000239D
:101E4C007B6100237B6000233B611E4B5B68FB6066
:101E5C00FB6803F00C03042B02D0082B03D027E003
:101E6C00194B3B6127E0FB689B0C03F00F03174AEF
:101E7C00D35C7B60FB6803F48033002B10D0114BD8
:101E8C005B685B0C03F00103114AD35CBB607B689D
:101E9C000D4A02FB03F2BB68B2FBF3F37B6104E077
:101EAC007B680C4A02FB03F37B617B693B6102E0BC
:101EBC00054B3B6100BF3B6918461C37BD4680BCD7
:101ECC00704700BF0010024000127A00BC270008C7
:101EDC00CC27000800093D0080B485B000AF7860C5
:101EEC000A4B1B680A4AA2FB03235B0A7A6802FBB3
:101EFC0003F3FB6000BFFB685A1EFA60002BF9D19C
:101F0C0000BF00BF1437BD4680BC704720000020C6
:101F1C00D34D621080B582B000AF78607B68002B27
:101F2C0001D1012341E07B6893F83D30DBB2002BFB
:101F3C0006D17B68002283F83C207868FFF770F8A4
:101F4C007B68022283F83D207B681A687B68043327
:101F5C001946104600F056FA7B68012283F8462099
:101F6C007B68012283F83E207B68012283F83F20A6
:101F7C007B68012283F840207B68012283F8412092
:101F8C007B68012283F842207B68012283F843207E
:101F9C007B68012283F844207B68012283F845206A
:101FAC007B68012283F83D20002318460837BD4684
:101FBC0080BD000080B485B000AF78607B6893F87A
:101FCC003D30DBB2012B01D0012335E07B680222CE
:101FDC0083F83D207B681B68DA687B681B6842F0DD
:101FEC000102DA607B681B68164A934209D07B6851
:101FFC001B68B3F1804F04D07B681B68124A934274
:10200C0011D17B681B689B6803F00703FB60FB68BE
:10201C00062B10D07B681B681A687B681B6842F023
:10202C0001021A6007E07B681B681A687B681B68F2
:10203C0042F001021A60002318461437BD4680BCDA
:10204C00704700BF002C01400004004080B584B0F4
:10205C0000AF78607B681B68DB68FB607B681B6883
:10206C001B69BB60BB6803F00203002B20D0FB682C
:10207C0003F00203002B1BD07B681B686FF002027D
:10208C001A617B6801221A777B681B689B6903F0D5
:10209C000303002B03D0786800F098F905E078680A
:1020AC0000F08BF9786800F09AF97B6800221A77B7
:1020BC00BB6803F00403002B20D0FB6803F004037F
:1020CC00002B1BD07B681B686FF004021A617B68C5
:1020DC0002221A777B681B689B6903F44073002B00
:1020EC0003D0786800F072F905E0786800F065F9C3
:1020FC00786800F074F97B6800221A77BB6803F0EB
:10210C000803002B20D0FB6803F00803002B1BD026
:10211C007B681B686FF008021A617B6804221A77CF
:10212C007B681B68DB6903F00303002B03D0786822
:10213C0000F04CF905E0786800F03FF9786800F0A1
:10214C004EF97B6800221A77BB6803F01003002B52
:10215C0020D0FB6803F01003002B1BD07B681B689E
:10216C006FF010021A617B6808221A777B681B6873
:10217C00DB6903F44073002B03D0786800F026F978
:10218C0005E0786800F019F9786800F028F97B68A8
:10219C0000221A77BB6803F00103002B0CD0FB68FC
:1021AC0003F00103002B07D07B681B686FF0010262
:1021BC001A617868FEF7F2FEBB6803F08003002B0F
:1021CC000CD0FB6803F08003002B07D07B681B68E6
:1021DC006FF080021A61786800F06FFABB6803F048
:1021EC004003002B0CD0FB6803F04003002B07D0FE
:1021FC007B681B686FF040021A61786800F0F8F891
:10220C00BB6803F02003002B0CD0FB6803F0200309
:10221C00002B07D07B681B686FF020021A6178686E
:10222C0000F042FA00BF1037BD4680BD80B584B0C7
:10223C0000AF786039600023FB737B6893F83C3007
:10224C00012B01D10223B4E07B68012283F83C20EE
:10225C007B68022283F83D207B681B689B68BB600F
:10226C00BB6823F07703BB60BB6823F47F43BB6080
:10227C007B681B68BA689A603B681B68B3F5005FA3
:10228C003ED0B3F5005F00F28780B3F5805F00F0BD
:10229C008680B3F5805F7FD8702B1AD0702B7BD8DB
:1022AC00602B50D0602B77D8502B3CD0502B73D850
:1022BC00402B58D0402B6FD8302B64D0302B6BD8A0
:1022CC00202B60D0202B67D8002B5CD0102B5AD041
:1022DC0062E07B6818683B6899683B685A683B68A1
:1022EC00DB6800F06AF97B681B689B68BB60BB68A5
:1022FC0043F07703BB607B681B68BA689A604FE059
:10230C007B6818683B6899683B685A683B68DB686F
:10231C0000F053F97B681B689A687B681B6842F471
:10232C0080429A603CE07B6818683B6859683B685F
:10233C00DB681A4600F0CAF87B681B685021184607
:10234C0000F021F92CE07B6818683B6859683B6801
:10235C00DB681A4600F0E8F87B681B6860211846B9
:10236C0000F011F91CE07B6818683B6859683B6801
:10237C00DB681A4600F0AAF87B681B6840211846F7
:10238C0000F001F90CE07B681A683B681B68194681
:10239C00104600F0F8F803E00123FB7300E000BFE7
:1023AC007B68012283F83D207B68002283F83C2067
:1023BC00FB7B18461037BD4680BD80B483B000AFA0
:1023CC00786000BF0C37BD4680BC704780B483B0CA
:1023DC0000AF786000BF0C37BD4680BC704780B43E
:1023EC0083B000AF786000BF0C37BD4680BC70472F
:1023FC0080B483B000AF786000BF0C37BD4680BCA2
:10240C007047000080B485B000AF786039607B689D
:10241C001B68FB607B682B4A934207D07B68B3F147
:10242C00804F03D07B68284A934208D1FB6823F085
:10243C007003FB603B685B68FA681343FB607B6866
:10244C00204A934207D07B68B3F1804F03D07B685E
:10245C001D4A934208D1FB6823F44073FB603B6830
:10246C00DB68FA681343FB60FB6823F080023B686F
:10247C005B691343FB607B68FA681A603B689A6877
:10248C007B68DA623B681A687B689A627B680D4AE3
:10249C00934203D13B681A697B681A637B680122FB
:1024AC005A617B681B6903F00103002B05D07B6824
:1024BC001B6923F001027B681A6100BF1437BD460B
:1024CC0080BC7047002C01400004004080B487B0F1
:1024DC0000AFF860B9607A60FB681B6A7B61FB68CF
:1024EC001B6A23F00102FB681A62FB689B693B6163
:1024FC003B6923F0F0033B617B681B013A69134392
:10250C003B617B6923F00A037B617A69BB681343E7
:10251C007B61FB683A699A61FB687A691A6200BF51
:10252C001C37BD4680BC704780B487B000AFF860E4
:10253C00B9607A60FB681B6A7B61FB681B6A23F0DD
:10254C001002FB681A62FB689B693B613B6923F4D0
:10255C0070433B617B681B033A6913433B617B69A6
:10256C0023F0A0037B61BB681B017A6913437B6179
:10257C00FB683A699A61FB687A691A6200BF1C377A
:10258C00BD4680BC704780B485B000AF78603960C0
:10259C007B689B68FB60FB6823F07003FB603A6808
:1025AC00FB68134343F00703FB607B68FA689A608F
:1025BC0000BF1437BD4680BC704780B487B000AFF5
:1025CC00F860B9607A603B60FB689B687B617B69F3
:1025DC0023F47F437B613B681A027B681A43BB6818
:1025EC0013437A6913437B61FB687A699A6000BF75
:1025FC001C37BD4680BC704780B485B000AF786096
:10260C0039607B6893F83C30012B01D1022341E007
:10261C007B68012283F83C207B68022283F83D20F2
:10262C007B681B685B68FB607B681B689B68BB6096
:10263C00FB6823F07003FB603B681B68FA6813436C
:10264C00FB607B681B68FA685A607B681B68144ADD
:10265C00934209D07B681B68B3F1804F04D07B6830
:10266C001B68104A93420CD1BB6823F08003BB60FB
:10267C003B685B68BA681343BB607B681B68BA68CD
:10268C009A607B68012283F83D207B68002283F8E6
:10269C003C20002318461437BD4680BC704700BF51
:1026AC00002C01400004004080B483B000AF78607F
:1026BC0000BF0C37BD4680BC704780B483B000AF00
:1026CC00786000BF0C37BD4680BC704770B50026E3
:1026DC000C4D0D4C641BA410A64209D100F030F82F
:1026EC0000260A4D0A4C641BA410A64205D170BDED
:1026FC0055F8043B98470136EEE755F8043B9847EC
:10270C000136F2E7D0270008D0270008D0270008B0
:10271C00D42700080A44914200F1FF3300D17047DE
:10272C0010B511F8014B914203F8014FF9D110BDCE
:10273C0003460244934200D1704703F8011BF9E7AA
:10274C00F8B500BFF8BC08BC9E467047F8B500BF92
:08275C00F8BC08BC9E46704762
:10276400010101010101000001010000000001015B
:10277400000101000101010101000001000101004B
:102784000001010100010100010101000101010139
:102794000101010100000000010101010101010129
:1027A4000101010001010000000000000000000020
:1027B40001020304060708090203040506070809C1
:0C27C4000A0B0C0D0E0F1010010200009B
:0427D00031010008CB
:0427D4000D010008EB
:1027D8000A0000000F0000001F0000003200000087
:1027E80001000000050000000300000001000000D7
:0C27F80000127A00100000000100000038
:04000005080010E5FA
:00000001FF
